:020000040800F2
:10000000A00600209D010008FF1D0008511B0008EC
:10001000FD1D000833070008BD2400080000000093
:10002000000000000000000000000000031E0008A7
:10003000F107000800000000011E0008051E00086E
:10004000B7010008B7010008B7010008B7010008B0
:10005000B7010008B7010008B7010008B7010008A0
:10006000B7010008B7010008B7010008B701000890
:10007000B7010008B7010008B7010008B701000880
:10008000B701000835070008B7010008B7010008EC
:10009000B7010008B7010008B7010008B701000860
:1000A000B7010008B7010008B7010008B701000850
:1000B000E51E0008B7010008B7010008B7010008F5
:1000C000B7010008B7010008B7010008B701000830
:1000D000B7010008A5240008B1240008B7010008F2
:1000E000B7010008B7010008B7010008B701000810
:1000F000B7010008B7010008B7010008B701000800
:10010000B7010008B7010008B7010008B7010008EF
:10011000B7010008B7010008B7010008B7010008DF
:10012000B7010008B7010008B7010008B7010008CF
:10013000B7010008B7010008B7010008B7010008BF
:10014000B7010008B7010008B7010008B7010008AF
:10015000B7010008B701000841070008B70100080F
:10016000B7010008B7010008B7010008B70100088F
:10017000B7010008B7010008B7010008000000003F
:10018000B7010008B7010008DFF80CD000F050FA02
:1001900000480047E12D0008A006002006488047DF
:1001A00006480047FEE7FEE7FEE7FEE7FEE7FEE75C
:1001B000FEE7FEE7FEE7FEE7911E00088901000862
:1001C0002DE9F05F0546002092469B46884606468C
:1001D000814640241BE0284641464746224600F01F
:1001E0005EF853465A46C01A914110D3114618463C
:1001F000224600F045F82D1A67EB01084F462246CB
:100200000120002100F03CF817EB00094E41201EB0
:10021000A4F10104DFDC484631462A464346BDE8E6
:10022000F09FD2B201E000F8012B491EFBD27047CB
:100230000022F6E710B513460A4604461946FFF7B2
:10024000F0FF204610BD421C10F8011B0029FBD115
:10025000801A704730B50B46014600202022012449
:1002600009E021FA02F59D4205D303FA02F5491B84
:1002700004FA02F52844151EA2F10102F1DC30BD9A
:10028000202A04DB203A00FA02F100207047914056
:10029000C2F1200320FA03F3194390407047202A4B
:1002A00004DB203A21FA02F00021704721FA02F320
:1002B000D040C2F1200291400843194670472DE911
:1002C000FE4F804681EA0300C00F0C46009021F0EB
:1002D000004123F00045B8EB0200A94105D2404699
:1002E000214690461C460B46024623F00040104330
:1002F00047D0270DC7F30A00C3F30A510290401AF2
:10030000019040286BDAC3F3130040F4801B00987F
:10031000924620B10023D2EB030A63EB0B0B01984A
:100320005946C0F140025046FFF7AAFF06460D4667
:1003300050465946019A00F08DF910EB08006141D2
:10034000002487EA115284EAE7731A4340D0009AE6
:1003500062B3019A012A4FEA075215DC001B61EBD8
:1003600002014FF0004202EA0752CDE90042001CB0
:1003700041F5801132462B4600F08DF903B0BDE8FF
:10038000F08F40462146F9E7001B61EB0201001C9B
:1003900041F5801300185B412018A2F5001747EBC8
:1003A000030140EAD570B6196D4111E06D084FEABE
:1003B000360645EAC0754FEA0752001B61EB0201A1
:1003C000001C41F5801149084FEA300000195141E5
:1003D00032462B4603B0BDE8F04F00F04DB900980F
:1003E000012240000023D0EB020263EBE07300988F
:1003F00021464FEAE074B8EB000061EB0401E9E745
:1004000083F000435BE781F0004158E72DE9FE4FA0
:1004100081EA030404F0004421F0004100944FF00D
:10042000000B23F0004350EA01045ED052EA0304BB
:100430005BD0C3F30A54C1F30A552C44A4F2F3343D
:100440000194A0FB0254C1F3130141F48011C3F3E2
:10045000130343F4801301FB024400FB034E840AA0
:10046000970A44EA815447EA8357A4FB0768029538
:100470008D0A05FB07854FEA932C04FB0C542705D6
:10048000029D4FEA065847EA1637B5EB08056EEBB2
:10049000070C870E920E47EA811742EA8312A7FBE8
:1004A0000201B6EB0B0164EB00042B0D43EA0C33A5
:1004B0005E1844EB1C50DA465146E7FB0201C5F3D7
:1004C00013044FEA0B3343EA14534FEA0432019CFE
:1004D00043EA0603A4F10C040294009CCDE900B4A5
:1004E00000F0D9F803B0BDE8F08F00200146F9E72D
:1004F0002DE9F04D81EA030404F0004B21F00045A2
:1005000014464FF0000A23F0004150EA050220D0C3
:1005100054EA01021DD0C5F30A570246C5F313037E
:10052000C1F31300C1F30A5640F4801543F480135D
:10053000A7EB0608101BD64608F2FD3873EB050042
:1005400002D308F1010801E092185B41B8F1000FF5
:1005500003DA00200146BDE8F08D00204FF4801141
:10056000064684460EE0171B73EB050705D3121BE6
:1005700063EB050306434CEA010C49084FEA3000DF
:1005800092185B4150EA0107EDD152EA030012D004
:1005900082EA040083EA0501084305D0101BAB4141
:1005A00006D20122002306E000224FF0004302E0C1
:1005B0006FF0010253101AEB06004CEB085110EBE0
:1005C0000A0041EB0B01BDE8F04D00F055B8C1F356
:1005D0000A52C1F3130140F2FF3341F480119A42F1
:1005E00002DA00200146704740F233439A42A2F2F9
:1005F000334202DC5242FFF752BEFFF741BE000019
:1006000030B5041E71F1000404DB4FF00044404299
:1006100064EB0101141E73F1000405DB1C464FF06E
:100620000043524263EB0403994208BF904230BD3D
:10063000064C074D06E0E06840F0010394E807002F
:1006400098471034AC42F6D3FFF7A2FDF02E000815
:10065000102F0008202A06DBCB17203A41FA02F0BF
:1006600043EAE07306E041FA02F3D040C2F120020F
:10067000914008431946704710B5141E73F10004E9
:1006800008DA401C41F1000192185B411A4301D184
:1006900020F0010010BD2DE9F04D92469B4611B1AE
:1006A000B1FA81F202E0B0FA80F220329046FFF710
:1006B000E7FD04460F4640EA0A0041EA0B015346B3
:1006C0005A46084313D0114653EA010019D0C8F125
:1006D00040025046FFF7E3FD05460E465046594698
:1006E0004246FFF7CDFD084305D0012004E0204637
:1006F0003946BDE8F08D0020054346EAE0762C43FC
:1007000037430A986305E40AA0EB08000022FD0ABB
:1007100044EA47540A3002D500200146E9E70105C2
:1007200010196941DDE9084500196941BDE8F04D3E
:10073000A2E7FEE7014800F06FB800003C0200208D
:10074000014800F069B80000DC01002001681823AE
:10075000CAB2103AB2FBF3F2054B6FF30901032A58
:100760009B5CC36500D9091D816508467047000080
:10077000D02E000810B5014600208B698A6A4FF020
:10078000C07453B1B3F5005F15D072B1012A0CD01B
:10079000022A0AD0032A09D104E01AB1012A06D09C
:1007A000022A03D1C96AC90100D5012010BDC96A56
:1007B000A142FAD010BD002AF7D0012AF2D0022AB5
:1007C000F3D0032AF3D010BD30B50468256825F4B2
:1007D00080252560046863608368402B036803D02C
:1007E00099600068C26030BD9A600068C16030BD29
:1007F0007047704790F83510022903D08021416579
:1008000001207047052180F835100068016821F04B
:1008100001010160002070472DE9F84304464FF0C4
:100820000009CDF8009063484FF41651A56D00689B
:10083000B0FBF1F72E6894F85C10082000FA01F183
:1008400031420FD021680A6852070BD50A6822F09E
:1008500004020A6094F85C108840A860606D40F063
:100860000100606594F85C104FF0010808FA01F08F
:10087000304208D021684969090604D5A860606D36
:1008800040F00200606594F85C100420884030421B
:1008900008D021680968890704D5A860606D40F018
:1008A0000400606594F85C1010208840304218D035
:1008B00021680968090714D5A86020680168490300
:1008C00004D50068000308D5A16C07E00168C905DC
:1008D00003D4016821F008010160216C09B12046B0
:1008E000884794F85C1020208840304231D021683D
:1008F0000968C9062DD5A86094F835000528206838
:10090000016806D0490347D5006800031DD4616C17
:100910001CE021F0160101602068416921F080018E
:100920004161206C08B9A06C20B12068016821F0F9
:100930000801016094F85C103F208840A86084F8AA
:10094000349084F83580216D1FE0E16B09B12046B9
:100950008847606D00282BD0606DC00714D005203B
:1009600084F835002068016821F0010101600098D9
:10097000401C0090B84203D820680068C007F6D138
:1009800084F8349084F83580E16C002910D001B0EF
:100990002046BDE8F04308470168C905D5D4016881
:1009A00021F01001016084F8349084F83580CCE7A0
:1009B000BDE8F8830C0000202DE9F041044600F06A
:1009C0007FF906465CB1002584F83450022084F893
:1009D00035002068016821F0010101600DE001206F
:1009E000BDE8F08100F06CF9801B052805D92020B6
:1009F0006065032084F83500F2E720680068C007CE
:100A0000F0D12268116820480140D4E9010318435D
:100A1000D4E903363343184363691843A369184381
:100A2000E3691843236A18430843616A042903D120
:100A3000D4E90B1319430843106020684069666AC3
:100A400020F0070130460E43012704280CD1A06A8C
:100A50000643E06A40B12046FFF78CFE20B14020FB
:100A6000606584F83570BAE7206846612046FFF774
:100A70006DFE94F85C203F2191408160656584F8AB
:100A800035700020ACE700003F8010F02DE9F04108
:100A90000446866D90F83400002501280DD0012011
:100AA00084F8340094F835700020012F07D084F8C2
:100AB000340002252846BDE8F0810220FBE702272A
:100AC00084F8357060652046FFF77EFE94F85C1070
:100AD0003F208840B0602068016841F01601016045
:100AE0002068416941F080014161206C20B120689B
:100AF000016841F0080101602068016841F00101CE
:100B00000160D7E72DE9F84FDFF87CB100224FF004
:100B100001084FF0030A4FF00F090BF1040E00BF5C
:100B20000B6808FA02F42340A3426ED14D68022DEF
:100B300001D0122D0ED1D50800EB850CDCF8205029
:100B40005607F70E09FA07F6B5430E69BE402E4365
:100B5000CCF82060066855000F790AFA05FC07F00A
:100B6000030726EA0C06AF40374307604E68012EA4
:100B700005D0022E03D0112E01D0122E0ED1866880
:100B8000CF6826EA0C06AF40374387604668A64325
:100B90000C79C4F30014944034434460C6688C68F4
:100BA00026EA0C06AC403443C4604C68E40065D5CA
:100BB000364C256845F480452560246822F00305FD
:100BC00004F480440094324C2E19D6F80848950756
:100BD0002F0F09FA07F5AC432E4DA84201D100258D
:100BE00024E02D4DA84201D101251FE02B4DA84244
:100BF00001D102251AE02A4DA84201D1032515E0B2
:100C0000284DA84202D1042510E037E0264DA84225
:100C100001D105250AE0254DA84201D1062505E0B0
:100C2000234DA84201D1072500E00825BD402543FA
:100C3000C6F80858DBF800405D464E689C43F60352
:100C400000D51C432C60DEF8004075464E689C437E
:100C5000B60300D51C432C600B4D08352C684E683C
:100C60009C43F60200D51C432C60074D0C352C68C4
:100C70004E689C43B60200D51C432C60521C102ABF
:100C8000FFF44EAFBDE8F88F003C0140443802400D
:100C90000030014000000240000402400008024011
:100CA000000C0240001002400014024000180240F4
:100CB000001C02400AB1816170470904FBE7000093
:100CC00001488068704700000000002070B50400F3
:100CD00011D021684CF6CC400860216845F255508F
:100CE0000860D4E9000141602168A0688860FFF7CE
:100CF000E7FF054609E0012070BD00BFFFF7E0FFF8
:100D0000401B302801D9032070BD2068C06800282E
:100D1000F4D121684AF6AA200860002070BD00685E
:100D20004AF6AA210160002070470000024881684D
:100D30000278114481607047000000200B4810B514
:100D4000016841F400710160016841F48061016053
:100D5000016841F480710160032000F06FF8002009
:100D600000F006F800F024F8002010BD003C02401E
:100D700070B50D4D04464FF47A712878B1FBF0F050
:100D80000A490968B1FBF0F000F0E0FA48B9102C0C
:100D900007D200222146501E00F030F800206C607F
:100DA00070BD012070BD0000000000200C0000207C
:100DB0000A4808B5016841F480410160006800F408
:100DC000804000900548001F016841F0805101609B
:100DD000006800F08050009008BD000044380240D8
:100DE000002809DB00F01F0201219140400980002A
:100DF00000F1E020C0F8001170470000F0B40E4B85
:100E00001B680C46C3F30223C3F10705042D00D968
:100E10000425191D072901D2002300E0DB1E01264D
:100E200006FA05F1491E214099409E40761E164063
:100E30003143F0BC01F056BB0CED00E0064900F078
:100E4000070208684FF6FF03184040EA0220034AF1
:100E500010430860704700000CED00E00000FA0548
:100E60002DE9F0470E46050065D0DFF81481D8F86B
:100E70000000F7B200F00F00B04207D288F800700F
:100E8000D8F8000000F00F00B04254D128683D4C63
:100E9000810712D5400703D5206840F4E050206058
:100EA0002878000703D5206840F46040206020685F
:100EB000A96820F0F000084320602878C0072DD0F2
:100EC000304968680839012812D0022813D0032855
:100ED00011D00968890700292DDA216821F0030162
:100EE00001432160FFF7ECFE814641F2883A0EE0B3
:100EF00009688903EFE709688901ECE7FFF7E0FE7D
:100F0000A0EB0901514502D90320BDE8F087206814
:100F1000696800F00C00B0EB810FEFD1D8F8001039
:100F2000404601F00F01B14207D90770006800F098
:100F30000F00B04201D00120E7E72878400705D52F
:100F40002068E96820F4E050084320602878000712
:100F500006D52068296920F4604040EAC10020607D
:100F600000F036F82168084AC1F30311515CC8400B
:100F7000064908600020FFF7FBFE0020C5E70000DF
:100F8000003C024008380240D82E00080C00002027
:100F90000448054900680968044AC1F38221515C8C
:100FA000C84070470C00002008380240E82E0008B6
:100FB0000448054900680968044AC1F34231515C9C
:100FC000C84070470C00002008380240E82E000896
:100FD000154810B5006810F00C02144813D04110E9
:100FE000042A0FD0082A0ED10F4C241F2268236830
:100FF00002F03F025B0207D52068C0F38810A0FB17
:10100000010106E0084610BD2168C1F38811A1FB6B
:1010100000010023FFF7D4F82168C1F30141491C06
:101020004900B0FBF1F010BD083802400024F40084
:101030002DE9F84F050076D02878DFF8F8B2BE4CDD
:10104000C00749D0DBF800105846C1F381010129DF
:1010500008D00068C0F3810002280AD1201D006872
:10106000400206D52068800336D568680028E2D0A3
:1010700032E06868B0F5803F10D0B0F5A02F20684E
:1010800010D020F480302060206820F48020206080
:101090006868A0B1FFF714FE06460CE0206840F433
:1010A0008030F4E740F480202060F7E7FFF708FE87
:1010B000801B642873D820688003F7D50CE0FFF705
:1010C000FFFD064605E000BFFFF7FAFD801B642820
:1010D000F0D820688003F7D42878DFF86082800792
:1010E0004FF000093ED5DBF80010584611F00C0F08
:1010F00009D00068C0F3810002280BD18D48001F81
:101100000068400206D42068800715D5E8680128E9
:1011100009D111E0E868B8B10120C8F80000FFF774
:10112000CFFD064605E002E1FFF7CAFD801B02285D
:10113000C0D820688007F7D52068296920F0F8001A
:1011400040EAC10020600DE0C8F80090FFF7B8FD4C
:10115000064604E0FFF7B4FD801B02281FD8206874
:101160008007F7D42878000722D5724E7448696941
:101170006C3671B101210160FFF7A2FD074604E062
:10118000FFF79EFDC01B022809D830688007F7D5FD
:101190000EE0C0F80090FFF793FD074605E083E0FE
:1011A000FFF78EFDC01B02287ED830688007F7D479
:1011B0002878400768D5DFF87CA100270AF1380AB3
:1011C000DAF80000C0000BD4DAF8001041F08051CA
:1011D000CAF80010DAF80000012700F080500090F3
:1011E000584E3068C00510D4306840F480703060CC
:1011F000FFF766FD009005E0FFF762FD0099401AD9
:10120000022851D83068C005F6D54A4EA86868361D
:1012100001280FD00528306810D020F00100306080
:10122000306820F004003060A868B8B1FFF748FDCE
:1012300000900FE0306840F00100F4E740F0040057
:101240003060F7E7FFF73CFD0099411A41F2883022
:10125000814264D830688007F4D50EE0FFF730FD96
:10126000009007E0FFF72CFD0099411A41F2883009
:10127000814254D830688007F4D42FB1DAF80010D6
:1012800021F08051CAF80010A869C0B3DBF8001043
:10129000C1F3810102294AD00228484607D0C8F884
:1012A0006000FFF70DFD00E039E005463AE04746F3
:1012B000C8F86000FFF704FD064604E0FFF700FDF4
:1012C000801B02282BD820688001F7D4D5E90701BC
:1012D0000843A96A1C4A490802EB01416A6A41EACB
:1012E0008211084395F82C1040EA01611148001F53
:1012F000016001203866FFF7E3FC054605E014E0D5
:10130000FFF7DEFC401B022809D820688001F7D5D2
:101310000BE000BFFFF7D4FC401B022802D90320DA
:10132000BDE8F88F20688001F4D40020F8E70120A0
:10133000F6E700000838024000380240000047424B
:10134000800E4742007000400000FFFF10B5401EB5
:10135000B0F1807F01D3012010BD4FF0E024606127
:101360000F21601701F0BEF80020A0610720206166
:10137000002010BD7047704770B590F83C20012ADE
:1013800019D0012400F83C4F0222427050F83C3C36
:101390005A689D6822F070060A684968324325F051
:1013A000800529435A6050F83C2C9160447000211C
:1013B0000170084670BD022070BD10B5040003D056
:1013C00094F83D0010B107E0012010BD002084F822
:1013D0003C00204600F00CF8022084F83D00211D5E
:1013E000206800F085FD012084F83D00002010BD3C
:1013F00008B50068B0F1804F12D10A48016841F089
:10140000010101600068002200F001000090114617
:101410001C20FFF7F3FCBDE808401C20FFF7E0BCF0
:1014200008BD0000403802400168CA6842F001026D
:10143000CA600068816801F00701062903D00168CD
:1014400041F0010101600020704770B5044690F83A
:101450003C00012817D0012584F83C50022084F874
:101460003D002068826822F0770222F47F42826089
:101470000868502830D00DDC20284DD005DC98B30A
:1014800010283BD148E0022070BD302844D04028CD
:1014900034D139E0602828D0702806D0B0F5805FBC
:1014A0002CD0B0F5005F29D10AE0CB68D1E9012149
:1014B000206800F08EFD2068816841F0770109E026
:1014C000CB68D1E90121206800F083FD20688168A4
:1014D00041F48041816011E0CA684968206800F0E9
:1014E0008AFD5021206807E016E0CA684968206834
:1014F00000F092FD6021206800F075FD84F83D50F9
:10150000002084F83C0070BDCA684968206800F07B
:1015100072FD40212068EFE7226801461046EBE7A4
:101520002DE9F0410D46040003D094F83D0018B1B8
:1015300008E00120BDE8F081002084F83C0020464E
:1015400000F03AF8022084F83D002068816844F2F7
:10155000070291438160211D206800F0C9FC2268C8
:1015600090689169166A2B68AF69034340F20330B3
:10157000814341EA0721A868EF6908434FF6FC411F
:101580008843E96840EA0720014328692F6A00017F
:1015900040EA0730084369686D6926F0AA0646EA02
:1015A000051529439360226890612068016201203B
:1015B00084F83D000020BDE730B587B00446142113
:1015C0006846FEF735FE214824681F4D00221F495A
:1015D00010380223AC4216D10C6844F002040C60AF
:1015E000096801F002010591016841F00101016003
:1015F0000068694600F001000590C0200090CDE928
:101600000132134819E0134DAC421AD10C6844F072
:1016100004040C60096801F004010591016841F0BF
:10162000080101600068694600F0080005904FF469
:1016300040500090CDE901320748CDE90323FFF780
:1016400061FA07B030BD000000040040403802409D
:101650000000024000080040000C024010B50446A3
:10166000006891B1042904D00122002100F0A4FCFB
:10167000206801225FF0040100F09EFC20680168F0
:1016800041F001010160002010BD01220021F3E7BB
:10169000704770B50446006801694FF00005C94302
:1016A000890715D4C168C943890711D4E91E0161AE
:1016B00001202077206880698007204602D0FFF74C
:1016C000E7FF04E000F098F8204600F096F8257750
:1016D00020680169C943490717D4C168C94349074C
:1016E00013D46FF004010161022020772068806923
:1016F00010F4407F204602D0FFF7CAFF04E000F05C
:101700007BF8204600F079F8257720680169C94305
:10171000090716D4C168C943090712D46FF008013C
:101720000161042020772068C0698007204602D02C
:10173000FFF7AEFF04E000F05FF8204600F05DF830
:10174000257720680169C943C90617D4C168C94310
:10175000C90613D46FF010010161082020772068BA
:10176000C06910F4407F204602D0FFF791FF04E0EB
:1017700000F042F8204600F040F825772068016923
:10178000C943C90708D1C168C943C90704D1891E23
:101790000161204600F032F820680169C94309065A
:1017A00009D4C168C943090605D46FF080010161FD
:1017B0002046FFF7DFFD20680169C943490609D4C7
:1017C000C168C943490605D46FF040010161204654
:1017D00000F01BF820680169C94389060BD4C16871
:1017E000C943890607D46FF0200101612046BDE896
:1017F0007040FFF7C0BD70BD704770470068B0F122
:10180000804F01D101F036BB70477047704710F828
:10181000391F40780843704770B502680446106865
:10182000D168536910F00F0F50D003F0010501F497
:10183000907635435DD0C20705D0CA0503D5E26B6B
:1018400042F00102E263420705D5DA0703D0E26BFA
:1018500042F00202E263820705D5DA0703D0E26BA9
:1018600042F00402E263020705D5DA0703D0E26B17
:1018700042F00802E263E26B002A33D0800604D50E
:10188000880602D5204600F039FC20684069E16BEB
:10189000C0F38010090700D428B3204600F017FCDD
:1018A0002068416949061AD5416921F0400141612A
:1018B000606BA0B11B490165606BFEF79BFF0028C0
:1018C00010D0606B016DBDE870400847830610D5ED
:1018D0008B060ED52046BDE8704000F00FBC2046B8
:1018E000FFF794FF70BD2046FFF790FF0020E063F4
:1018F00070BD030606D50B0604D52046BDE8704032
:1019000000F09EBD4006F3D54806F1D5D1682046CB
:1019100021F04001D160202184F8391000F016F93F
:1019200070BD00003D20000870B5040004D094F89C
:101930003900002510B106E0012070BD84F8385050
:10194000204600F023F8242084F839002068C1687C
:1019500021F40051C160204600F01CFC20680169A0
:1019600021F4904101612068416921F02A0141611F
:101970002068C16841F40051C160E563202084F80B
:10198000390084F83A00002070BD00002DE9F04FC6
:1019900087B0064614216846FEF74AFCDFF80C8142
:1019A000022231680024424801230325DFF804B1F4
:1019B00097064FF0070C4FF040094FF4806A4145FD
:1019C00035D13B491431D1F8008048F01008C1F8F6
:1019D0000080096801F010010591016841F00101E2
:1019E00001600068694600F00100059068028DE81A
:1019F0002D105846FFF786F8304D2F48C5E9029460
:101A0000C5E904A4AC61EC612C626C62C5E9000715
:101A10002846FEF7D1FF08B1FEF7EBFE3563002242
:101A200011462520AE63FFF7E9F9252039E0DFF8FC
:101A30009080414537D11E491031D1F8008048F4DB
:101A40000038C1F80080096801F40031059101688F
:101A500041F0010101600068694600F00100059055
:101A60000C208DE82D105846FFF74CF8134D154803
:101A70006035C5E90294C5E904A4AC61EC612C624F
:101A80006C62C5E900072846FEF796FF08B1FEF72D
:101A9000B0FE3563002211462620AE63FFF7AEF993
:101AA0002620FFF79DF907B0BDE8F08F0010014038
:101AB0003038024000000240B8640240DC010020DF
:101AC00000440040A06002407047000070B504462A
:101AD00090F83900202830D169B362B394F8380007
:101AE00001282AD0012084F838002162A284E284EF
:101AF0000025E563212084F83900236B1048D86362
:101B0000236B10481864236B0F48D864206B13466E
:101B100005652668206B321DFEF7B8FF21686FF05F
:101B20004000086084F838502068416941F0800125
:101B30004161002070BD012070BD022070BD000019
:101B400097200008C52000084D2000087047704706
:101B5000FEE70000114808B5016841F4800101600A
:101B6000016801F480010091016841F400110160F5
:101B70000068002200F40010009011461120FFF7C9
:101B80003DF91120FFF72CF9002211464620FFF7FE
:101B900035F9BDE808404620FFF722B93038024049
:101BA00070B586B014216846FEF742FB1A4800243F
:101BB000016841F020010160016801F020010591F8
:101BC000016841F080010160016801F08001059128
:101BD000016841F001010160016801F00101059116
:101BE000016841F00801016000680C4E00F0080037
:101BF0004FF4C0650590012229463046FFF75AF898
:101C000001200095CDE90104694630460394FEF7B2
:101C100079FF06B070BD0000303802400014024069
:101C2000094810B507490160042141604FF47A71F9
:101C30008160FFF74BF8002803D0BDE81040FEF7A5
:101C4000D8BD10BD003000409000002010B586B017
:101C500000241748009401940294039404944FF0D4
:101C600080410594016042F2CF01C0E9011440F2C5
:101C7000E731C0E903148461FFF79FFB08B1FEF769
:101C8000B8FD4FF48050009069460948FFF7DDFB2E
:101C900008B1FEF7AEFD049404A905480594FFF7CA
:101CA0006BFB002801D0FEF7A4FD06B010BD0000BC
:101CB0009C00002010B58CB024216846FEF7B8FACD
:101CC00000241648099414490A94C0E900144FF6F8
:101CD000FE71C0E90241046184610320CDE9000482
:101CE0000120CDE902040494CDE90540079469463A
:101CF0000A480894FFF714FC08B1FEF77AFD09942E
:101D000009A906480A94FFF737FB002801D0FEF71F
:101D100070FD0CB010BD000000040040DC0000208D
:101D200010B58CB024216846FEF782FA00241648CC
:101D3000099414490A94C0E900144FF6FE71C0E9F1
:101D40000241046184610320CDE900040120CDE952
:101D500002040494CDE90540079469460A480894B2
:101D6000FFF7DEFB08B1FEF744FD099409A9064818
:101D70000A94FFF701FB002801D0FEF73AFD0CB0F2
:101D800010BD0000000800401C0100200C4810B5E8
:101D90000A4901604FF4E1314160002181600C2269
:101DA000C160C0E904128161C161FFF7BDFD002877
:101DB00003D0BDE81040FEF71CBD10BD001001406F
:101DC0005C0100200C4810B50A4901604FF4E13174
:101DD0004160002181600C22C160C0E90412816170
:101DE000C161FFF7A1FD002803D0BDE81040FEF758
:101DF00000BD10BD004400409C010020FEE770477C
:101E000070477047FEF792BF30B593B030216846F7
:101E1000FEF70EFA14210CA8FEF70AFA1A4800255C
:101E2000016841F080510160006800F0805011901D
:101E30001648016841F4804101600068102100F4F7
:101E4000804011900A2000900120CDE9030105A9EE
:101E5000022481E8310008200890A820CDE9090477
:101E600004200B906846FFF7E3F80CA90F2081E8E7
:101E700031004FF4A0500F90E002109005210CA803
:101E8000FEF7EEFF13B030BD403802400070004056
:101E90001048016841F4700101600F48016841F089
:101EA000010101600C4A00210832116002680B4BED
:101EB0001A400260031D0A4A1A60026822F4802256
:101EC000026005480C3001600249580680390860FC
:101ED0007047000088ED00E000380240FFFFF6FE8A
:101EE000103000240148FFF7D4BB00009C00002004
:101EF000F0B50268254C264D264E274F274B4FF054
:101F0000804CA04209D0604507D0A84205D0B0421D
:101F100003D0B84201D0984204D122F0700E4A6832
:101F200042EA0E02A0421BD0604519D0A84217D049
:101F3000B04215D0B84213D0984211D0184DA842E3
:101F40000ED0184DA8420BD0174DA84208D0174DFF
:101F5000A84205D0164DA84202D0164DA84203D182
:101F600022F44075CA682A434D6922F080022A4350
:101F700002608A68C2620A688262A04201D0984206
:101F800001D10969016301214161F0BD00000140F7
:101F90000004004000080040000C00400004014024
:101FA000004001400044014000480140001800404A
:101FB000001C00400020004010B501F01F0301216B
:101FC000046A99408C430462016A9A401143016299
:101FD00010BD10B5846842EA032224F47F440A430A
:101FE0002243826010BD826822F070020A4342F0F0
:101FF00007018160704710B5036A046A24F0010488
:102000000462846924F0F00444EA021423F00A0212
:102010000A438461026210BD10B5036A23F0100305
:1020200003628369046A23F4704343EA023224F0B2
:10203000A00343EA01118261016210BD10B5806BFB
:102040000021C185C184FFF7E1FB10BD70B5846B31
:102050002068406994F83910C0F3C0100025212988
:1020600004D118B1E584204600F03FF820684069AB
:1020700094F83A10C0F38010222904D118B1E585F4
:10208000204600F024F8E06B40F01000E0632046AA
:10209000FFF7BCFB70BD10B50146806B096809688D
:1020A000C9050CD40021C18401684A6922F080026C
:1020B0004A610068C16841F04001C16010BDFFF78E
:1020C00045FD10BD10B5806BFFF741FD10BD0168E7
:1020D000CA6822F49072CA6001684A6922F001025B
:1020E0004A61202180F83A1070470168CA6822F0DE
:1020F000C002CA60202180F83910704710B590F8EE
:102100003A10222901D0022010BD8168B1F5805F0C
:1021100011D00169002901681FD0496801F07F03CF
:10212000816A4A1C82620B70C18D491E0904090C28
:10213000C18518D02BE00269816A002A02685268C2
:1021400005D0D2B20A80816A491C8162ECE7C2F3F1
:1021500008020A80816A891CF7E74A68816A4B1C79
:1021600083620A70E0E70168CA6822F02002CA6050
:102170000168CA6822F48072CA6001684A6922F064
:1021800001024A61202180F83A10FFF79DFC0020EF
:1021900010BD00002DE9F041044600680169E268C5
:1021A00021F44051114301612169A068E2690843AB
:1021B0006169114322680843D16849F20C6399436D
:1021C0000143D16020684169A26921F44071114343
:1021D0004161E2696425B2F5004F9748974922684A
:1021E0004FF032083FD08A4201D082427CD1FEF7C4
:1021F000DFFE00EBC00101EB001061688900B0FB5D
:10220000F1F6FEF7D5FE00EBC00101EB00106168AE
:102210008900B0FBF1F0B0FBF5F06FF01801484316
:1022200006EB800108EB0110B0FBF5F000F0F006C2
:10223000FEF7BEFE00EBC00101EB001061688900F3
:10224000B0FBF1F0B0FBF5F006EB0016FEF7B0FEC8
:1022500000EBC00101EB001061688900B0FBF1F7F1
:10226000FEF7A6FED2E08A4201D082423DD1FEF7BF
:102270009FFE00EBC00101EB001061684900B0FB5C
:10228000F1F0B0FBF5F00601FEF792FE00EBC001A5
:1022900001EB001061684900B0FBF1F7FEF788FE22
:1022A00000EBC00101EB001061684900B0FBF1F0E8
:1022B000B0FBF5F06FF01801484307EB800108EB25
:1022C000C100B0FBF5F000F0F80006EB4006FEF7A9
:1022D0006FFE00EBC00101EB001061684900B0FB2C
:1022E000F1F7FEF765FE3CE055E0FEF751FE00EB2E
:1022F000C00101EB001061684900B0FBF1F0B0FBD8
:10230000F5F00601FEF744FE00EBC00101EB001002
:1023100061684900B0FBF1F7FEF73AFE00EBC0013F
:1023200001EB001061684900B0FBF1F0B0FBF5F083
:102330006FF01801484307EB800108EBC100B0FBC8
:10234000F5F000F0F80006EB4006FEF721FE00EB8A
:10235000C00101EB001061684900B0FBF1F7FEF726
:1023600017FE00EBC00101EB001061684900B0FBF3
:10237000F1F0B0FBF5F06FF01801484307EB800176
:1023800008EBC100B0FBF5F000F007002168304415
:102390008860BDE8F081FEF7FBFD00EBC00101EBBA
:1023A000001061688900B0FBF1F6FEF7F1FD00EB6B
:1023B000C00101EB001061688900B0FBF1F0B0FBD7
:1023C000F5F06FF01801484306EB800108EB0110AF
:1023D000B0FBF5F000F0F006FEF7DAFD00EBC0010F
:1023E00001EB001061688900B0FBF1F0B0FBF5F083
:1023F00006EB0016FEF7CCFD00EBC00101EB001070
:1024000061688900B0FBF1F7FEF7C2FD00EBC00187
:1024100001EB001061688900B0FBF1F0B0FBF5F052
:102420006FF01801484307EB800108EB0110B0FB87
:10243000F5F000F00F00A9E7001401400010014082
:1024400090F83910212901D0022070478168B1F538
:10245000805F016A0BD04A1C0262026809785160F1
:10246000C18C491E0904090CC1840ED017E00988EB
:102470000268C1F30801516001690029016A02D0B4
:10248000491C0162ECE7891CFBE70168CA6822F07D
:102490008002CA600068C16841F04001C16000204C
:1024A000704700000148FFF7B7B900005C01002049
:1024B0000148FFF7B1B900009C010020FEE70000D1
:1024C00037B514460846064B6A46214600F0ECF83C
:1024D00004466946002000F07EFC20463EBD000018
:1024E000D72D00080907090E002804DB00F1E020C1
:1024F00080F80014704700F00F0000F1E02080F831
:10250000141D704702E008C8121F08C1002AFAD142
:1025100070477047002001E001C1121F002AFBD163
:10252000704700002DE9FF5F82B00021DDE9043033
:10253000020DDDF840B0034318D044F61050A2F26B
:10254000FF3242431514119801281FD0A5EB0B0050
:10255000401C5FEA000A4FF000064E4FDFF838914A
:10256000B046504615D5CAF1000413E01198012475
:102570004AA3012801D16FEA0B010298119AC0E920
:102580000031C0E9024206B0BDE8F09FCBF1000087
:10259000DFE704460021404A491842EB0450CDE9E8
:1025A000001012E0E00707D032463B46404649465D
:1025B000FDF72CFF8046894632463B4610461946B9
:1025C000FDF724FF06460F466410002CEAD1DDE932
:1025D0000401DDE90023BAF1000F06DAFDF716FF6A
:1025E00042464B46FDF712FF05E0FDF781FF4246EC
:1025F0004B46FDF77DFF04460E460022284BFDF7B3
:10260000FFFF03D84FF0FF30014607E00022254BC3
:1026100020463146FDF753FEFDF7D9FF102409E0AF
:10262000002C0ADB0A220023FDF7CAFD039B30328F
:102630001A55641E50EA0102F2D1641C039AC4F1D7
:1026400011031444119A012A03D0012208430DD129
:102650000AE0084304D000204FF0110B119072E7FC
:10266000A3EB0B056D1E0DE05B4504DD4FF0000292
:1026700005F1010504E003DA4FF00002A5F10105C0
:10268000002AECD002981199C0E90231C0E9004556
:1026900079E70000000014400000F03F3000000027
:1026A0000000F0430000E03F2DE9FF4F95B09B464E
:1026B0008946064600250FE2252877D100242746C3
:1026C000F84A0121059400E0044316F8013F203B3D
:1026D00001FA03F01042F7D130782A2811D06FF0B8
:1026E0002F033078A0F13002092A16D8059A44F059
:1026F000020402EB820203EB42021044761C0590B6
:10270000EFE759F8042B0592002A03DA504244F40B
:102710000054059044F00204761C30782E2816D11F
:1027200016F8010F44F004042A280DD06FF02F0290
:102730003078A0F13003092B09D807EB870302EBAF
:102740004303C718761CF3E759F8047B761C3078EE
:102750006C280FD006DC4C2817D068280DD06A28CA
:1027600014D104E0742810D07A280FD10DE044F47D
:1027700000140AE044F4801401E044F44014727838
:10278000824202D104F58014761C761C30786628CB
:102790000BD013DC582877D009DC002875D04528E9
:1027A000F6D04628F4D047281AD19DE118E06328D6
:1027B00035D0642879D0652812D195E1702873D07E
:1027C00008DC6728F1D069286FD06E280DD06F28FB
:1027D00006D1B5E073282CD0752875D0782874D030
:1027E0005A46179990476D1C75E1C4F302500228B0
:1027F00009D003280DD0D9F8001004280DD00D60A1
:1028000009F1040967E1D9F80010EA17C1E900529B
:10281000F6E7D9F800100D80F2E70D70F0E719F82F
:10282000041B8DF8001000208DF80100EA460120FD
:1028300003E059F804AB4FF0FF3061074FF000019F
:1028400002D40DE008F101018846B9420FDA804553
:10285000F8DB1AF808100029F4D108E008F10101AA
:1028600088468142FADB1AF808100029F6D105984B
:102870005B46A0EB080721463846179A00F094FA09
:10288000284400EB080507E04DE029E10DE01AF8C7
:10289000010B5A4617999047B8F10108F7D25B46E9
:1028A00021463846179A13E142E00A220092C4F307
:1028B00002524FF0000A022A08D059F804CB032A2A
:1028C0004FEAEC710AD00DE029E02AE009F1070196
:1028D00021F00702F2E802C1914609E00FFA8CFCF0
:1028E0004FEAEC71042A03D14FFA8CFC4FEAEC71E9
:1028F000002907DA0A460021DCF1000C61EB020135
:102900002D2202E0220504D52B228DF8042001227D
:1029100003E0E20701D02022F7E7904659E00A21C0
:1029200002E010220DE010214FF0000A00910BE0B0
:1029300010224FF0000A44F004040827009203E03C
:1029400008224FF0000A0092C4F30252022A05D076
:1029500059F804CB0021032A08D009E009F1070146
:1029600021F00702F2E802C1914605E01FFA8CFC53
:10297000042A01D10CF0FF0C4FF00008220728D5E3
:10298000702806D0009B83F0100353EA0A0305D099
:102990000EE040228DF80420012208E05CEA0102EA
:1029A00006D030228DF804208DF8050002229046D2
:1029B000009B83F0080353EA0A030AD15CEA010290
:1029C00001D1620705D530228DF804204FF00108AF
:1029D0007F1E582804D034A003900EA802900DE06A
:1029E00036A0F9E753466046009AFDF7E9FB8446B6
:1029F0000398825C0298401E029002705CEA01001B
:102A0000F0D1029806A9081A00F1200A600702D541
:102A100024F4803400E00127574502DDA7EB0A00CB
:102A200000E0002000EB0A01009005984144401AA4
:102A30000590E00306D45B462146179A059800F0FE
:102A4000B3F90544002706E001A85A46C05D17996E
:102A500090476D1C7F1C4745F6DBE0030CD55B46B9
:102A60002146179A059800F09FF9054404E03020AC
:102A70005A46179990476D1C0099481E00900029EE
:102A8000F5DC08E0029802995A460078491C029148
:102A9000179990476D1CBAF10001AAF1010AF1DC07
:102AA00065E1000009280100303132333435363712
:102AB000383961626364656600000000303132338A
:102AC000343536373839414243444546000000002A
:102AD00000F058F90544761C307800287FF4ECADFE
:102AE00019B02846BDE8F08F620700D4062709F127
:102AF000070222F0070CFCE80223E14603F000483D
:102B00005FEA080C02D00FF2702C0DE05FEA045C63
:102B100002D50FF2682C07E05FEAC47C02D00FF206
:102B2000602C01E0AFF2700C4FF0FF3823F000434F
:102B3000CDF850C065280CD006DC452809D04628C1
:102B40001DD047283DD13DE0662818D067287ED1AA
:102B500038E00021112F01DB112000E0781CCDE9C5
:102B6000000106A90EA8FFF7DDFCDDE90F010E9AB2
:102B700003910021009207F1010A04914DE04FF00A
:102B800000400097CDE9011006A90EA8FFF7CAFC86
:102B9000DDE90F0203920E9B11990022DDF80CA0D3
:102BA0000093049211B9791C00EB010AB7EB0A00FB
:102BB00004D4C0F1FF3007F1010A0490AAEB07002A
:102BC000019044E0012F00DA01270021112F01DDDF
:102BD000112000E03846CDE9000106A90EA8FFF754
:102BE000A1FCDDE90F010E9A0391002104910092EE
:102BF000BA4621070CD40399514500DA8A46BAF146
:102C0000010F05DD009AAAF10101515C302908D0BD
:102C1000B84202DA10F1040F06DA0121CDE9011001
:102C200015E0AAF10101E9E7002805DC0499014457
:102C30000491AAEB000102E0411C514500DD8A46E7
:102C40000499401A401C01904FF000400290200768
:102C500004D40198504501DBCDF8048000208DF8A4
:102C60004F0002980DF14F07B0F1004F25D02B20F7
:102C70000E9002984FF0020800280CDA40420290B1
:102C80002D200E9007E00A210298FDF7E3FA30317B
:102C9000029007F8011DB8F10001A8F10108F2DC6B
:102CA00002980028EFD1791E0E980870307800F055
:102CB000200040F0450007F8020D12A8C01B00F1EB
:102CC00007081498007800B1012000EB0A01019870
:102CD00001EBE07105984144401A401E0590E00365
:102CE00006D45B462146179A059800F05DF8054426
:102CF0001498007818B15A46179990476D1CE00354
:102D000024D55B462146179A059800F04DF80544F6
:102D10001CE00498002807DBDDE90301884203DD9D
:102D20000098405C179901E0179930205A46904767
:102D3000049805F10105401C04900198401E019083
:102D400004D12E205A46179990476D1CBAF1000104
:102D5000AAF1010ADDDC05E017F8010B5A461799C4
:102D600090476D1CB8F10001A8F10108F4DC5B4646
:102D70002146179A0598ABE62D0000002B000000B5
:102D8000200000002DE9F041044600251E461746AC
:102D9000880404D405E039462020B0476D1C641E29
:102DA000F9D52846BDE8F0812DE9F041044600251B
:102DB0001E469046C80301D5302700E0202788042E
:102DC00004D505E041463846B0476D1C641EF9D570
:102DD0002846BDE8F0810A68531C0B6010707047EC
:102DE000FDF7ACFFFFF710F8FEF7DAFEFEF7B2FED4
:102DF000FEF716FFFEF72AFFFEF75CFFFEF790FFD7
:102E0000FEF7C4FFFEF7DEFF00F020F8FEE700004B
:102E10000FB470B5054606AC2846FEF7F8FC21282D
:102E2000FAD0224608480599FFF74AFB002807DD3B
:102E30000548FDF708FA82B203492846FEF746FE28
:102E400070BC5DF814FB00001000002010B50648AF
:102E5000FEF7EAFA3C210548FEF700FCBDE8104009
:102E60003C210348FEF7FABB9C000020DC00002058
:102E70001C01002010B50848FDF751FF0748006805
:102E8000406A82B206480068406ABDE8104083B2DA
:102E900004A10E48FFF7BCBF90000020DC0000201A
:102EA0001C010020656E636F646572315F696E633B
:102EB0003A2025643B2020656E636F646572325F43
:102EC000696E633A2025640D0A0000005C01002051
:102ED000000610160006101600000000000000009A
:102EE00001020304060708090000000001020304B0
:102EF000102F00080000002010000000042500082A
:102F0000202F000810000020900600001425000863
:102F10000100000010000000000000000024F40088
:040000050800018965
:00000001FF
